:100000000C9463000C9490000C9400000C94A700D6
:100010000C9400000C9400000C9400000C94000060
:100020000C9400000C9400000C9400000C94000050
:100030000C9400000C9400000C9400000C94000040
:100040000C9400000C9400000C9400000C94000030
:100050000C94000001030206040C080909080C04B2
:1000600006020301000000000000466174656D6532
:10007000204D6F736176696E6A6400417265207904
:100080006F752072656164793F0033003200310082
:10009000580080C001002D4E414E00494E460000E0
:1000A000060004006400110060026A000F00710283
:1000B0007B00020080029000020082029200010098
:1000C000860294000000F894EE27ECBBF1E0FBBF41
:1000D000EBBFE5BF8DE0A2E0BB27ED938A95E9F782
:1000E00080E098E0A0E6ED930197E9F7E0EAF0E020
:1000F00085919591009761F0A591B5910590159026
:10010000BF01F00105900D920197E1F7FB01F0CFDF
:10011000EFE5EDBFE8E0EEBFC0E6D2E00C94C3002F
:100120000A92EA93FA93EFB7EA9382990FC0E0E15B
:100130005E1648F443940024061407041CF4F301EB
:1001400032973F0103C0F30131963F0116C00A9276
:10015000EA93FA93EFB7EA93B2990FC0E0E15E1623
:1001600048F043940024061407041CF4F30132976A
:100170003F0103C0F30131963F01E991EFBFF991CF
:10018000E99109901895EFEFEABBEFE0E4BB8A989C
:10019000BA98AAE2B0E00E944202A0E10E940F02D7
:1001A000E0E0EA93A0E00E949F01A0E6B2E00E9496
:1001B0006302E0E0EA93A0E00E949F01A1E7B2E0C1
:1001C0000E9463020E946B02AAE8B0E00E947002E3
:1001D000ACE8B0E00E947002AEE8B0E00E94EB0133
:1001E000A4E6B0E00E948B020E94AF01EBB7E0648E
:1001F000EBBFEBB7E062EBBF789421970E944C0213
:10020000A1E0B0E00E94BE02E8830E944C02AFE190
:10021000B0E00E94BE025E2EE0E15E1610F4E0E067
:1002200001C0E1E0E883E52DF0E0AFE0B0E00E943E
:10023000BE02EA93A9810E949F01A0E8B2E00E9459
:10024000DC01AEE6B0E00E948B020E94AF01882480
:100250009924E9E1F0E0E815F9054CF0F301E45ADE
:10026000FF4F049005BAF40131964F01F2CFA1E09F
:10027000B0E00E948B02062C0728A1F48824992460
:10028000E9E1F0E0E815F9054CF0F301EC5AFF4F15
:10029000049005BAF40131964F01F2CFA1E0B0E02D
:1002A0000E948B02F30131963F01E7E0F0E06E1609
:1002B0007F0614F06624772421969FCFFFCFFFE0BE
:1002C000FA95F1F70895AAB3AF70AABBD99AD89856
:1002D000F6DFDA9AF4DFA9B3DA98F1DFDA9AEFDF22
:1002E000DA98A7FDF5CF0895A07FAB2BABBBDA9AC8
:1002F0000E945F01DA980E945F010895AA93D9983D
:10030000AAB3A76FAABBBBB3BF70A881EDDFA8815A
:10031000A295EADFD99A0C944002DA9A0E945F0112
:10032000E9B3DA980E945F01E07F08950E945F01BF
:10033000F4DFAE2FF2DFD998E295EA2B0895AA9365
:100340000E946301E881F0E0EE57FD4FE081A98152
:10035000AE0F0E947E01B980A8800C944A020E94D0
:100360006301A2E00E947E010E946301ACE00E9452
:100370007E010E946301A1E00E947E01E0E0AE2EBA
:10038000BE2E0895AA93EF93FF93A8816894AA3094
:1003900019F0E894BD1430F0A394E0E0EA93AA2D9C
:1003A000CEDF36F0B3948FDFD89AA8810E947E0109
:1003B000FF91EF910C944002BA93AA931A93A981EA
:1003C000BA81ED91A983BA831E2FE03019F0A12FD5
:1003D000D9DFF5CF10C0BA93AA931A93E981FA81B5
:1003E0003196E983FA833197E4911E2FE03019F0BA
:1003F000A12FC8DFF3CF188123960895AA27BB2722
:100400001197F1F70895AA93D998AAB3A76FAABB39
:10041000BBB3BF70A8810E947401D99A31C0AA935E
:10042000DA98D898D880E881E058E0938402E8818F
:10043000E054E09385020E9479020E9479020E94B2
:100440007902DCDFA0E2DFDFD9DFA8E20E947E02D2
:10045000A4E00E947E02A5E80E947E02AAB3AF70CB
:10046000AABBD99A0E949601E53011F0E0E008C0DD
:100470000E946301A6E00E947E010E94AF01E1E0BC
:1004800021960895BA93AA93E881F9810E9499026E
:100490000E94820222960895E0918602F0918702DE
:1004A0006091880270918902ADE6BEE486EC91E429
:1004B0000E949E02EE59F8486F4F7F4F0E948202C1
:1004C000FB01FF7708950E94DC01A4E6B0E00E94E2
:1004D0008B020C94AF01E1E0EA93A1E00C949F0140
:1004E0000E94EB01A4E6B0E00E948B020E94AF01E3
:1004F000F2CF0E94FE01A0E30C9403020E947E0151
:100500000C94FE01E0938602F093870260938802C8
:10051000709389020895109639F0A89580ED97E0C0
:100520000197F1F71197C9F70895F195E195F0401A
:1005300008956F2F660F660B762F08957A9F702DA2
:100540006B9F700DF89F700DE99F700D6A9F602D75
:10055000710DFB9F600D711DE89F600D711D882757
:10056000FA9FF02D610D781FEB9FF00D611D781F34
:10057000EA9FE02DF10D681F781F0895E894F7FFBA
:1005800002C0D3DF6894EA23FB230EF4CEDF089584
:00000001FF
